{
  "contractName": "xacminh",
  "abi": [
    {
      "inputs": [],
      "payable": false,
      "stateMutability": "nonpayable",
      "type": "constructor"
    },
    {
      "constant": false,
      "inputs": [
        {
          "components": [
            {
              "internalType": "string",
              "name": "truong",
              "type": "string"
            },
            {
              "internalType": "string",
              "name": "msvv",
              "type": "string"
            },
            {
              "internalType": "string",
              "name": "bang",
              "type": "string"
            },
            {
              "internalType": "string",
              "name": "fullName",
              "type": "string"
            },
            {
              "internalType": "string",
              "name": "ngaySinh",
              "type": "string"
            },
            {
              "internalType": "string",
              "name": "nganh",
              "type": "string"
            },
            {
              "internalType": "string",
              "name": "nam",
              "type": "string"
            },
            {
              "internalType": "string",
              "name": "loai",
              "type": "string"
            },
            {
              "internalType": "string",
              "name": "hinhThuc",
              "type": "string"
            },
            {
              "internalType": "string",
              "name": "soHieu",
              "type": "string"
            },
            {
              "internalType": "string",
              "name": "ht",
              "type": "string"
            }
          ],
          "internalType": "struct xacminh.Student",
          "name": "student",
          "type": "tuple"
        }
      ],
      "name": "addStudent",
      "outputs": [],
      "payable": false,
      "stateMutability": "nonpayable",
      "type": "function"
    },
    {
      "constant": true,
      "inputs": [
        {
          "components": [
            {
              "internalType": "string",
              "name": "truong",
              "type": "string"
            },
            {
              "internalType": "string",
              "name": "msvv",
              "type": "string"
            },
            {
              "internalType": "string",
              "name": "bang",
              "type": "string"
            },
            {
              "internalType": "string",
              "name": "fullName",
              "type": "string"
            },
            {
              "internalType": "string",
              "name": "ngaySinh",
              "type": "string"
            },
            {
              "internalType": "string",
              "name": "nganh",
              "type": "string"
            },
            {
              "internalType": "string",
              "name": "nam",
              "type": "string"
            },
            {
              "internalType": "string",
              "name": "loai",
              "type": "string"
            },
            {
              "internalType": "string",
              "name": "hinhThuc",
              "type": "string"
            },
            {
              "internalType": "string",
              "name": "soHieu",
              "type": "string"
            },
            {
              "internalType": "string",
              "name": "ht",
              "type": "string"
            }
          ],
          "internalType": "struct xacminh.Student",
          "name": "student",
          "type": "tuple"
        }
      ],
      "name": "verifyStudent",
      "outputs": [
        {
          "internalType": "bool",
          "name": "",
          "type": "bool"
        }
      ],
      "payable": false,
      "stateMutability": "view",
      "type": "function"
    },
    {
      "constant": false,
      "inputs": [
        {
          "components": [
            {
              "internalType": "string",
              "name": "truong",
              "type": "string"
            },
            {
              "internalType": "string",
              "name": "msvv",
              "type": "string"
            },
            {
              "internalType": "string",
              "name": "bang",
              "type": "string"
            },
            {
              "internalType": "string",
              "name": "fullName",
              "type": "string"
            },
            {
              "internalType": "string",
              "name": "ngaySinh",
              "type": "string"
            },
            {
              "internalType": "string",
              "name": "nganh",
              "type": "string"
            },
            {
              "internalType": "string",
              "name": "nam",
              "type": "string"
            },
            {
              "internalType": "string",
              "name": "loai",
              "type": "string"
            },
            {
              "internalType": "string",
              "name": "hinhThuc",
              "type": "string"
            },
            {
              "internalType": "string",
              "name": "soHieu",
              "type": "string"
            },
            {
              "internalType": "string",
              "name": "ht",
              "type": "string"
            }
          ],
          "internalType": "struct xacminh.Student",
          "name": "student",
          "type": "tuple"
        },
        {
          "internalType": "address",
          "name": "verifier",
          "type": "address"
        }
      ],
      "name": "verifyDiploma",
      "outputs": [],
      "payable": false,
      "stateMutability": "nonpayable",
      "type": "function"
    },
    {
      "constant": true,
      "inputs": [
        {
          "components": [
            {
              "internalType": "string",
              "name": "truong",
              "type": "string"
            },
            {
              "internalType": "string",
              "name": "msvv",
              "type": "string"
            },
            {
              "internalType": "string",
              "name": "bang",
              "type": "string"
            },
            {
              "internalType": "string",
              "name": "fullName",
              "type": "string"
            },
            {
              "internalType": "string",
              "name": "ngaySinh",
              "type": "string"
            },
            {
              "internalType": "string",
              "name": "nganh",
              "type": "string"
            },
            {
              "internalType": "string",
              "name": "nam",
              "type": "string"
            },
            {
              "internalType": "string",
              "name": "loai",
              "type": "string"
            },
            {
              "internalType": "string",
              "name": "hinhThuc",
              "type": "string"
            },
            {
              "internalType": "string",
              "name": "soHieu",
              "type": "string"
            },
            {
              "internalType": "string",
              "name": "ht",
              "type": "string"
            }
          ],
          "internalType": "struct xacminh.Student",
          "name": "student",
          "type": "tuple"
        }
      ],
      "name": "checkDiplomaVerification",
      "outputs": [
        {
          "internalType": "bool",
          "name": "",
          "type": "bool"
        },
        {
          "internalType": "address",
          "name": "",
          "type": "address"
        }
      ],
      "payable": false,
      "stateMutability": "view",
      "type": "function"
    },
    {
      "constant": false,
      "inputs": [
        {
          "components": [
            {
              "internalType": "string",
              "name": "truong",
              "type": "string"
            },
            {
              "internalType": "string",
              "name": "msvv",
              "type": "string"
            },
            {
              "internalType": "string",
              "name": "bang",
              "type": "string"
            },
            {
              "internalType": "string",
              "name": "fullName",
              "type": "string"
            },
            {
              "internalType": "string",
              "name": "ngaySinh",
              "type": "string"
            },
            {
              "internalType": "string",
              "name": "nganh",
              "type": "string"
            },
            {
              "internalType": "string",
              "name": "nam",
              "type": "string"
            },
            {
              "internalType": "string",
              "name": "loai",
              "type": "string"
            },
            {
              "internalType": "string",
              "name": "hinhThuc",
              "type": "string"
            },
            {
              "internalType": "string",
              "name": "soHieu",
              "type": "string"
            },
            {
              "internalType": "string",
              "name": "ht",
              "type": "string"
            }
          ],
          "internalType": "struct xacminh.Student",
          "name": "student",
          "type": "tuple"
        },
        {
          "internalType": "address",
          "name": "lookupAddress",
          "type": "address"
        }
      ],
      "name": "recordLookupAddress",
      "outputs": [],
      "payable": false,
      "stateMutability": "nonpayable",
      "type": "function"
    },
    {
      "constant": true,
      "inputs": [
        {
          "components": [
            {
              "internalType": "string",
              "name": "truong",
              "type": "string"
            },
            {
              "internalType": "string",
              "name": "msvv",
              "type": "string"
            },
            {
              "internalType": "string",
              "name": "bang",
              "type": "string"
            },
            {
              "internalType": "string",
              "name": "fullName",
              "type": "string"
            },
            {
              "internalType": "string",
              "name": "ngaySinh",
              "type": "string"
            },
            {
              "internalType": "string",
              "name": "nganh",
              "type": "string"
            },
            {
              "internalType": "string",
              "name": "nam",
              "type": "string"
            },
            {
              "internalType": "string",
              "name": "loai",
              "type": "string"
            },
            {
              "internalType": "string",
              "name": "hinhThuc",
              "type": "string"
            },
            {
              "internalType": "string",
              "name": "soHieu",
              "type": "string"
            },
            {
              "internalType": "string",
              "name": "ht",
              "type": "string"
            }
          ],
          "internalType": "struct xacminh.Student",
          "name": "student",
          "type": "tuple"
        }
      ],
      "name": "getLookupAddress",
      "outputs": [
        {
          "internalType": "address",
          "name": "",
          "type": "address"
        }
      ],
      "payable": false,
      "stateMutability": "view",
      "type": "function"
    },
    {
      "constant": true,
      "inputs": [],
      "name": "getOwner",
      "outputs": [
        {
          "internalType": "address",
          "name": "",
          "type": "address"
        }
      ],
      "payable": false,
      "stateMutability": "view",
      "type": "function"
    }
  ],
  "bytecode": "0x608060405234801561001057600080fd5b50336000806101000a81548173ffffffffffffffffffffffffffffffffffffffff021916908373ffffffffffffffffffffffffffffffffffffffff160217905550610f11806100606000396000f3fe608060405234801561001057600080fd5b506004361061007d5760003560e01c806378fef1dc1161005b57806378fef1dc146100ff5780637ffd0c571461012f578063893d20e81461014b578063e6cd82fb146101695761007d565b806322ed30cb146100825780633b802741146100b25780637367d883146100e3575b600080fd5b61009c60048036036100979190810190610a64565b610185565b6040516100a99190610c10565b60405180910390f35b6100cc60048036036100c79190810190610a64565b6101cf565b6040516100da929190610c46565b60405180910390f35b6100fd60048036036100f89190810190610a64565b61023e565b005b61011960048036036101149190810190610a64565b6104c3565b6040516101269190610c2b565b60405180910390f35b61014960048036036101449190810190610aa5565b6104fa565b005b61015361064d565b6040516101609190610c10565b60405180910390f35b610183600480360361017e9190810190610aa5565b610676565b005b600080610191836106da565b90506004600082815260200190815260200160002060009054906101000a900473ffffffffffffffffffffffffffffffffffffffff16915050919050565b60008060006101dd846106da565b90506001600082815260200190815260200160002060009054906101000a900460ff166003600083815260200190815260200160002060009054906101000a900473ffffffffffffffffffffffffffffffffffffffff169250925050915091565b6000809054906101000a900473ffffffffffffffffffffffffffffffffffffffff1673ffffffffffffffffffffffffffffffffffffffff163373ffffffffffffffffffffffffffffffffffffffff16146102cd576040517f08c379a00000000000000000000000000000000000000000000000000000000081526004016102c490610d71565b60405180910390fd5b60006102d8826106da565b90506001600082815260200190815260200160002060009054906101000a900460ff161561033b576040517f08c379a000000000000000000000000000000000000000000000000000000000815260040161033290610d51565b60405180910390fd5b8160026000838152602001908152602001600020600082015181600001908051906020019061036b929190610746565b506020820151816001019080519060200190610388929190610746565b5060408201518160020190805190602001906103a5929190610746565b5060608201518160030190805190602001906103c2929190610746565b5060808201518160040190805190602001906103df929190610746565b5060a08201518160050190805190602001906103fc929190610746565b5060c0820151816006019080519060200190610419929190610746565b5060e0820151816007019080519060200190610436929190610746565b50610100820151816008019080519060200190610454929190610746565b50610120820151816009019080519060200190610472929190610746565b5061014082015181600a019080519060200190610490929190610746565b50905050600180600083815260200190815260200160002060006101000a81548160ff0219169083151502179055505050565b6000806104cf836106da565b90506001600082815260200190815260200160002060009054906101000a900460ff16915050919050565b6000809054906101000a900473ffffffffffffffffffffffffffffffffffffffff1673ffffffffffffffffffffffffffffffffffffffff163373ffffffffffffffffffffffffffffffffffffffff1614610589576040517f08c379a000000000000000000000000000000000000000000000000000000000815260040161058090610d71565b60405180910390fd5b6000610594836106da565b90506001600082815260200190815260200160002060009054906101000a900460ff166105f6576040517f08c379a00000000000000000000000000000000000000000000000000000000081526004016105ed90610d91565b60405180910390fd5b816003600083815260200190815260200160002060006101000a81548173ffffffffffffffffffffffffffffffffffffffff021916908373ffffffffffffffffffffffffffffffffffffffff160217905550505050565b60008060009054906101000a900473ffffffffffffffffffffffffffffffffffffffff16905090565b6000610681836106da565b9050816004600083815260200190815260200160002060006101000a81548173ffffffffffffffffffffffffffffffffffffffff021916908373ffffffffffffffffffffffffffffffffffffffff160217905550505050565b6000816000015182602001518360400151846060015185608001518660a001518760c001518860e001518961010001518a61012001516040516020016107299a99989796959493929190610c6f565b604051602081830303815290604052805190602001209050919050565b828054600181600116156101000203166002900490600052602060002090601f016020900481019282601f1061078757805160ff19168380011785556107b5565b828001600101855582156107b5579182015b828111156107b4578251825591602001919060010190610799565b5b5090506107c291906107c6565b5090565b6107e891905b808211156107e45760008160009055506001016107cc565b5090565b90565b6000813590506107fa81610eb7565b92915050565b600082601f83011261081157600080fd5b813561082461081f82610dde565b610db1565b9150808252602083016020830185838301111561084057600080fd5b61084b838284610e64565b50505092915050565b6000610160828403121561086757600080fd5b610872610160610db1565b9050600082013567ffffffffffffffff81111561088e57600080fd5b61089a84828501610800565b600083015250602082013567ffffffffffffffff8111156108ba57600080fd5b6108c684828501610800565b602083015250604082013567ffffffffffffffff8111156108e657600080fd5b6108f284828501610800565b604083015250606082013567ffffffffffffffff81111561091257600080fd5b61091e84828501610800565b606083015250608082013567ffffffffffffffff81111561093e57600080fd5b61094a84828501610800565b60808301525060a082013567ffffffffffffffff81111561096a57600080fd5b61097684828501610800565b60a08301525060c082013567ffffffffffffffff81111561099657600080fd5b6109a284828501610800565b60c08301525060e082013567ffffffffffffffff8111156109c257600080fd5b6109ce84828501610800565b60e08301525061010082013567ffffffffffffffff8111156109ef57600080fd5b6109fb84828501610800565b6101008301525061012082013567ffffffffffffffff811115610a1d57600080fd5b610a2984828501610800565b6101208301525061014082013567ffffffffffffffff811115610a4b57600080fd5b610a5784828501610800565b6101408301525092915050565b600060208284031215610a7657600080fd5b600082013567ffffffffffffffff811115610a9057600080fd5b610a9c84828501610854565b91505092915050565b60008060408385031215610ab857600080fd5b600083013567ffffffffffffffff811115610ad257600080fd5b610ade85828601610854565b9250506020610aef858286016107eb565b9150509250929050565b610b0281610e26565b82525050565b610b1181610e38565b82525050565b6000610b2282610e0a565b610b2c8185610e15565b9350610b3c818560208601610e73565b610b4581610ea6565b840191505092915050565b6000610b5d601683610e15565b91507f53696e68207669656e2064612064756f63207468656d000000000000000000006000830152602082019050919050565b6000610b9d601f83610e15565b91507f4e67756f6920676f69206b686f6e6720706861692063687520736f20687575006000830152602082019050919050565b6000610bdd601883610e15565b91507f73696e68207669656e20636875612064756f63207468656d00000000000000006000830152602082019050919050565b6000602082019050610c256000830184610af9565b92915050565b6000602082019050610c406000830184610b08565b92915050565b6000604082019050610c5b6000830185610b08565b610c686020830184610af9565b9392505050565b6000610140820190508181036000830152610c8a818d610b17565b90508181036020830152610c9e818c610b17565b90508181036040830152610cb2818b610b17565b90508181036060830152610cc6818a610b17565b90508181036080830152610cda8189610b17565b905081810360a0830152610cee8188610b17565b905081810360c0830152610d028187610b17565b905081810360e0830152610d168186610b17565b9050818103610100830152610d2b8185610b17565b9050818103610120830152610d408184610b17565b90509b9a5050505050505050505050565b60006020820190508181036000830152610d6a81610b50565b9050919050565b60006020820190508181036000830152610d8a81610b90565b9050919050565b60006020820190508181036000830152610daa81610bd0565b9050919050565b6000604051905081810181811067ffffffffffffffff82111715610dd457600080fd5b8060405250919050565b600067ffffffffffffffff821115610df557600080fd5b601f19601f8301169050602081019050919050565b600081519050919050565b600082825260208201905092915050565b6000610e3182610e44565b9050919050565b60008115159050919050565b600073ffffffffffffffffffffffffffffffffffffffff82169050919050565b82818337600083830152505050565b60005b83811015610e91578082015181840152602081019050610e76565b83811115610ea0576000848401525b50505050565b6000601f19601f8301169050919050565b610ec081610e26565b8114610ecb57600080fd5b5056fea365627a7a72315820d736b12f4704742787f3efec119eeca8cac72e45842c8ff0d4f9bcfce5dc68bf6c6578706572696d656e74616cf564736f6c63430005100040",
  "source": "// SPDX-License-Identifier: GPL-3.0\r\npragma solidity >=0.4.2;\r\npragma experimental ABIEncoderV2;\r\ncontract xacminh {\r\n  // Khai báo biến và ánh xạ\r\n  address private owner; // Địa chỉ của chủ sở hữu hợp đồng (trường đại học)\r\n  mapping(bytes32 => bool) studentAdded; // Lưu trữ địa chỉ đã thêm sinh viên\r\n  mapping(bytes32 => Student) students; // Lưu trữ danh sách sinh viên đã được thêm\r\n  mapping(bytes32 => address) verifiedAddresses; // Lưu trữ địa chỉ đã thực hiện xác thực\r\n  mapping(bytes32 => address) lookupAddresses; // Lưu trữ địa chỉ đã tra cứu\r\n\r\n  // Cấu trúc thông tin sinh viên\r\n  struct Student {\r\n    string truong; // Tên trường\r\n    string msvv; // Mã số sinh viên\r\n    string bang; // Bằng cấp\r\n    string fullName; // Họ và tên\r\n    string ngaySinh; // Ngày sinh\r\n    string nganh; // Ngành học\r\n    string nam; // Năm sinh\r\n    string loai; // Loại bằng cấp\r\n    string hinhThuc; // Hình thức đào tạo\r\n    string soHieu; // Số hiệu sinh viên\r\n    string ht; // Hiệu trưởng trường\r\n  }\r\n\r\n  // Kiểm tra người gọi có phải chủ sở hữu không\r\n  modifier isOwner() {\r\n    require(msg.sender == owner, \"Nguoi goi khong phai chu so huu\");\r\n    _;\r\n  }\r\n\r\n  // Hàm khởi tạo để thiết lập người triển khai hợp đồng làm chủ sở hữu\r\n  constructor() public {\r\n    owner = msg.sender;\r\n  }\r\n\r\n  // Hàm tạo hash từ các thông tin sinh viên\r\n  function generateHash(Student memory student) private pure returns (bytes32) {\r\n    return keccak256(abi.encode(student.truong, student.msvv, student.bang, student.fullName, student.ngaySinh, student.nganh, student.nam, student.loai, student.hinhThuc, student.soHieu));\r\n  }\r\n\r\n  // Hàm thêm sinh viên (chỉ trường đại học có thể truy cập)\r\n  function addStudent(Student memory student) public isOwner {\r\n    bytes32 hash = generateHash(student);\r\n    require(!studentAdded[hash], \"Sinh vien da duoc them\");\r\n    students[hash] = student;\r\n    studentAdded[hash] = true;\r\n  }\r\n\r\n  // Hàm xác minh tính hợp lệ của sinh viên (bất kỳ ai cũng có thể truy cập)\r\n  function verifyStudent(Student memory student) public view returns (bool) {\r\n    bytes32 hash = generateHash(student);\r\n    return studentAdded[hash];\r\n  }\r\n\r\n  // Hàm xác thực bằng cấp (chỉ trường đại học có thể truy cập)\r\n  function verifyDiploma(Student memory student, address verifier) public isOwner {\r\n    bytes32 hash = generateHash(student);\r\n    require(studentAdded[hash], \"sinh vien chua duoc them\");\r\n    verifiedAddresses[hash] = verifier;\r\n  }\r\n\r\n  // Hàm kiểm tra xác thực bằng cấp (bất kỳ ai cũng có thể truy cập)\r\n  function checkDiplomaVerification(Student memory student) public view returns (bool, address) {\r\n    bytes32 hash = generateHash(student);\r\n    return (studentAdded[hash], verifiedAddresses[hash]);\r\n  }\r\n\r\n  // Hàm lưu trữ địa chỉ tra cứu (bất kỳ ai cũng có thể truy cập)\r\n  function recordLookupAddress(Student memory student, address lookupAddress) public {\r\n    bytes32 hash = generateHash(student);\r\n    lookupAddresses[hash] = lookupAddress;\r\n  }\r\n\r\n  // Hàm lấy địa chỉ tra cứu (bất kỳ ai cũng có thể truy cập)\r\n  function getLookupAddress(Student memory student) public view returns (address) {\r\n    bytes32 hash = generateHash(student);\r\n    return lookupAddresses[hash];\r\n  }\r\n\r\n  // Hàm trả về địa chỉ của chủ sở hữu hợp đồng (trường đại học)\r\n  function getOwner() external view returns (address) {\r\n    return owner;\r\n  }\r\n}\r\n",
  "sourcePath": "D:\\..LV\\.demo\\xacminh\\contracts\\xacminh.sol",
  "compiler": {
    "name": "solc",
    "version": "0.5.16+commit.9c3226ce.Emscripten.clang"
  },
  "schemaVersion": "3.4.16",
  "updatedAt": "2024-05-12T07:30:29.438Z",
  "networkType": "ethereum",
  "devdoc": {
    "methods": {}
  },
  "userdoc": {
    "methods": {}
  }
}